:020000040800F2
:1000000000000220050600087905000881050008A7
:100010008905000891050008990500080000000006
:10002000000000000000000000000000A105000822
:10003000AD05000800000000B9050008C50500086E
:100040005906000859060008590600085906000814
:100050005906000859060008590600085906000804
:1000600059060008590600085906000859060008F4
:1000700059060008590600085906000859060008E4
:1000800059060008590600085906000859060008D4
:1000900059060008590600085906000859060008C4
:1000A00059060008590600085906000859060008B4
:1000B00059060008590600085906000859060008A4
:1000C0005906000859060008590600085906000894
:1000D0005906000859060008590600085906000884
:1000E00059060008590600080000000059060008DB
:1000F0005906000859060008590600085906000864
:100100005906000859060008590600085906000853
:100110005906000859060008590600085906000843
:100120005906000859060008590600085906000833
:100130005906000859060008590600085906000823
:1001400000000000000000000000000000000000AF
:100150005906000859060008590600085906000803
:1001600059060008590600085906000859060008F3
:10017000590600085906000859060008000000004A
:1001800059060008590600085906000859060008D3
:1001900059060008590600085906000859060008C3
:1001A00059060008590600085906000859060008B3
:1001B00059060008590600085906000859060008A3
:1001C0005906000859060008590600085906000893
:1001D0005906000859060008590600085906000883
:1001E0005906000859060008590600085906000873
:1001F0005906000859060008590600085906000863
:100200005906000859060008590600085906000852
:100210005906000859060008590600085906000842
:100220005906000859060008590600080000000099
:100230005906000859060008000000005906000889
:100240005906000859060008590600085906000812
:100250005906000859060008590600085906000802
:1002600059060008590600085906000859060008F2
:100270005906000859060008590600080000000049
:100280005906000859060008590600080000000039
:080290000000000059060008FF
:100298000348044B834202D0034B03B1184770470D
:1002A8001000002010000020000000000548064B48
:1002B8001B1AD90F01EBA301491002D0034B03B15C
:1002C80018477047100000201000002000000000B0
:1002D80010B5064C237843B9FFF7DAFF044B13B186
:1002E8000448AFF300800123237010BD10000020E4
:1002F80000000000401F000808B5054B1BB1054968
:100308000548AFF30080BDE80840FFF7CFBF00BF46
:100318000000000014000020401F000880B500AF56
:1003280000F096F801F01EFD00F018F800F0C2F891
:1003380000F0E8F8074B1B780133DAB2054B1A7066
:10034800322001F09DFD4FF40051034801F0B6FC46
:1003580000BFEFE72C0000200008025880B59CB0D1
:1003680000AF07F124034C220021184601F0B8FD24
:100378003B1D20220021184601F0B2FD022001F0A9
:10038800B7FC00233B60304B9B692F4A43F4404342
:1003980093612D4B9B6903F440433B602B4BDB6A15
:1003A8002A4A43F00103D362284BDB6A03F00103B6
:1003B8003B603B6800BF244B9B6903F40053B3F5D3
:1003C800005FF8D101237B624FF48033BB620223C4
:1003D800BB640223FB6405233B65C0237B650223C2
:1003E800BB650223FB6502233B6608237B6600236B
:1003F800BB660023FB6607F12403184600F02EFBBA
:100408000346002B01D000F04FF83F237B60032305
:10041800BB600023FB6008233B6140237B614023D2
:10042800BB614FF48063FB6140233B623B1D0421A9
:10043800184600F06DFF0346002B01D000F034F899
:1004480000BF7037BD4680BD004802580004005800
:1004580080B584B000AF3B4600221A605A609A60AB
:10046800DA6000F089FA01233B7000237B700023D7
:100478007B601F233B7287237B720023BB720023A0
:10048800FB7201233B7301237B730023BB7300239F
:10049800FB733B46184600F0A3FA042000F082FAEA
:1004A80000BF1037BD4680BD80B400AF72B600BF34
:1004B80000BFFDE780B483B000AF114BD3F8E03044
:1004C8000F4A43F00103C2F8E0300D4BD3F8E03097
:1004D80003F001037B607B68094BD3F8E030084ADE
:1004E80043F08003C2F8E030054BD3F8E03003F066
:1004F80080033B603B6800BF0C37BD4680BC70473B
:100508000044025880B586B000AF3B1D00221A6037
:100518005A609A60DA601A61134BD3F8E030124AD5
:1005280043F00403C2F8E0300F4BD3F8E03003F097
:1005380004033B603B6800224FF400510B4801F074
:10054800A5FB4FF400537B600123BB600023FB60D5
:1005580000233B613B1D1946044801F0DDF900BF4B
:100568001837BD4680BD00BF004402580008025835
:1005780080B400AF00BFFDE780B400AF00BFFDE767
:1005880080B400AF00BFFDE780B400AF00BFFDE757
:1005980080B400AF00BFFDE780B400AF00BFBD4628
:1005A80080BC704780B400AF00BFBD4680BC7047B8
:1005B80080B400AF00BFBD4680BC704780B500AFB7
:1005C80001F042FC00BF80BD80B483B000AF0A4B8D
:1005D800D3F8F430084A43F00203C2F8F430064B6B
:1005E800D3F8F43003F002037B607B6800BF0C375C
:1005F800BD4680BC704700BF00440258DFF838D0C1
:1006080000F0C6F800F026F80C480D490D4A002302
:1006180002E0D458C4500433C4188C42F9D30A4AAF
:100628000A4C002301E013600432A242FBD301F01C
:100638005FFCFFF773FEFEE70000022000000020C9
:1006480010000020701F0008100000203400002057
:10065800FEE7000080B400AF424BD3F88830414A2F
:1006680043F47003C2F888303F4B1B6803F00F0354
:10067800062B07D83C4B1B6823F00F033A4A43F07C
:1006880007031360394B1B68384A43F001031360B2
:10069800364B00221A61354B1A683449344B1340E3
:1006A8000B60314B1B6803F00803002B07D02E4B5F
:1006B8001B6823F00F032C4A43F0070313602B4BEE
:1006C80000229A61294B0022DA61284B00221A6223
:1006D800264B284A9A62254B274ADA62234B274A37
:1006E8001A63224B00225A63204B244A9A631F4BF9
:1006F8000022DA631D4B214A1A641C4B00225A64FB
:100708001A4B1B68194A23F480231360174B0022E5
:100718001A661B4B1A681B4B1340B3F1005F02D2D9
:10072800194B01221A60114BD3F8D43003F48053CB
:10073800002B13D10D4BD3F8D4300C4A43F480531B
:10074800C2F8D430114B43F2D2021A60074BD3F8E7
:10075800D430064A23F48053C2F8D43000BFBD46D3
:1007680080BC704700ED00E00020005200440258B1
:100778007FEDF6EA000202020000FF01800201019B
:100788000010005C0000FFFF08810051004000528B
:10079800044BDA6842F00202DA605A689204FCD527
:1007A800704700BF0048025880B485B000AF786039
:1007B8007B6803F00703FB600B4BDB68BB60BA6820
:1007C8004FF6FF031340BB60FB681A02BB681A436D
:1007D800064B1343BB60044ABB68D36000BF1437A1
:1007E800BD4680BC704700BF00ED00E00000FA0580
:1007F80080B400AF044BDB681B0A03F007031846FC
:10080800BD4680BC704700BF00ED00E080B483B0F7
:1008180000AF03463960FB80B7F90630002B0ADBCE
:100828003B68DAB20C49B7F906301201D2B20B4470
:1008380083F800230AE03B68DAB20849FB8803F032
:100848000F03043B1201D2B20B441A7600BF0C37D7
:10085800BD4680BC704700BF00E100E000ED00E04D
:1008680080B489B000AFF860B9607A60FB6803F0C3
:1008780007037B617B69033B042B04D87B69C3F1C5
:100888000703FB6101E00423FB617B690433062B4A
:1008980003D97B69033BBB6101E00023BB614FF0D7
:1008A800FF32FB6902FA03F3DA43BB681A40BB69FB
:1008B8009A404FF0FF31BB6901FA03F3D9437B68D3
:1008C8000B40134318462437BD4680BC70470000D0
:1008D80080B582B000AF78607B68013BB3F1807F60
:1008E80001D301230FE00A4A7B68013B53600F21C3
:1008F8004FF0FF30FFF78AFF054B00229A60044B48
:1009080007221A60002318460837BD4680BD00BF7D
:1009180010E000E080B582B000AF78607868FFF73B
:1009280043FF00BF0837BD4680BD80B586B000AF25
:100938000346B9607A60FB81FFF75AFF78617A68ED
:10094800B9687869FFF78CFF0246B7F90E3011468F
:100958001846FFF75BFF00BF1837BD4680BD80B55E
:1009680082B000AF78607868FFF7B2FF0346184698
:100978000837BD4680BD000080B400AFBFF35F8F6D
:1009880000BF064B5B6A054A23F480335362044B6D
:1009980000225A6000BFBD4680BC704700ED00E0F1
:1009A80090ED00E080B483B000AF78600A4A7B68BD
:1009B80043F001035360094B5B6A084A43F48033F0
:1009C8005362BFF34F8F00BFBFF36F8F00BF00BFED
:1009D8000C37BD4680BC704790ED00E000ED00E0AC
:1009E80080B483B000AF78607B685A781A4B9A60FD
:1009F800194B1B69184A23F001031361164A7B68D7
:100A08005B68D3607B681B7B1A077B68DB7A1B06F5
:100A18001A437B689B7ADB041A437B685B7B9B04E5
:100A28001A437B689B7B5B041A437B68DB7B1B0454
:100A38001A437B685B7A1B021A437B681B7A5B004C
:100A480013437A6812781146034A0B43136100BFB7
:100A58000C37BD4680BC704790ED00E080B58CB087
:100A680000AF78607B68002B02D1012300F048BCFE
:100A78007B681B6803F00103002B00F08880994B0A
:100A88001B6903F03803FB62964B9B6ABB62FB6AE7
:100A9800102B07D0FB6A182B11D1BB6A03F0030394
:100AA800022B0CD18F4B1B6803F40033002B6DD045
:100AB8007B685B68002B69D1012300F021BC7B684F
:100AC8005B68B3F5803F06D1864B1B68854A43F4C3
:100AD800803313602EE07B685B68002B0CD1814B60
:100AE8001B68804A23F4803313607E4B1B687D4A61
:100AF80023F4802313601DE07B685B68B3F5A02FA7
:100B08000CD1784B1B68774A43F480231360754BEC
:100B18001B68744A43F4803313600BE0714B1B6805
:100B2800704A23F4803313606E4B1B686D4A23F4BC
:100B3800802313607B685B68002B13D001F096F963
:100B4800786208E001F092F902467B6AD31A642BB6
:100B580001D90323D4E3634B1B6803F40033002B50
:100B6800F0D014E001F082F9786208E001F07EF933
:100B780002467B6AD31A642B01D90323C0E3594B7D
:100B88001B6803F40033002BF0D100E000BF7B6842
:100B98001B6803F00203002B00F0CA80514B1B694D
:100BA80003F038033B624F4B9B6AFB613B6A002BA7
:100BB80007D03B6A182B56D1FB6903F00303002BBF
:100BC80051D1484B1B6803F00403002B05D07B6808
:100BD800DB68002B01D1012392E3424B1B6823F011
:100BE80019027B68DB683F4913430B6001F03EF94B
:100BF800786208E001F03AF902467B6AD31A022BC0
:100C080001D903237CE3374B1B6803F00403002B53
:100C1800F0D001F059F9034641F20302934217D884
:100C28007B681B69402B08D12E4B5B6823F47C330F
:100C38002C4A43F4003353607AE02A4B5B6823F470
:100C48007C327B681B691B03264913434B606FE0AA
:100C5800244B5B6823F0FE427B681B691B06214915
:100C680013434B6064E07B68DB68002B47D01D4B67
:100C78001B6823F019027B68DB681A4913430B6071
:100C880001F0F4F8786208E001F0F0F802467B6AB7
:100C9800D31A022B01D9032332E3124B1B6803F04A
:100CA8000403002BF0D001F00FF9034641F20302D0
:100CB800934219D87B681B69402B08D1094B5B68A4
:100CC80023F47C33074A43F40033536030E0054B88
:100CD8005B6823F47C327B681B691B03014913435F
:100CE8004B6025E0004402589A4B5B6823F0FE42B3
:100CF8007B681B691B06974913434B6018E0954BAB
:100D08001B68944A23F00103136001F0AFF878627E
:100D180008E001F0ABF802467B6AD31A022B01D92E
:100D28000323EDE28B4B1B6803F00403002BF0D187
:100D38007B681B6803F01003002B00F0A980854B2B
:100D48001B6903F03803BB61824B9B6A7B61BB69FB
:100D5800082B07D0BB69182B3AD17B6903F0030332
:100D6800012B35D17B4B1B6803F48073002B05D016
:100D78007B68DB69802B01D00123C1E201F0A4F874
:100D8800034641F20302934217D87B681B6A202B63
:100D980008D1704B5B6823F0F8436E4A43F08043F8
:100DA800536075E06B4B5B6823F0F8427B681B6A05
:100DB8009B06684913434B606AE0664BDB6823F087
:100DC8007C527B681B6A1B0662491343CB605FE059
:100DD8007B68DB69002B42D05E4B1B685D4A43F0A1
:100DE8008003136001F042F8786208E001F03EF8F1
:100DF80002467B6AD31A022B01D9032380E2554BA2
:100E08001B6803F48073002BF0D001F05DF80346F3
:100E180041F20302934217D87B681B6A202B08D142
:100E28004C4B5B6823F0F8434A4A43F080435360D5
:100E38002EE0484B5B6823F0F8427B681B6A9B06F0
:100E4800444913434B6023E0424BDB6823F07C5258
:100E58007B681B6A1B063F491343CB6018E03D4B78
:100E68001B683C4A23F08003136000F0FFFF7862A0
:100E780008E000F0FBFF02467B6AD31A022B01D977
:100E880003233DE2334B1B6803F48073002BF0D13E
:100E98007B681B6803F00803002B36D07B685B690E
:100EA800002B19D02B4B5B6F2A4A43F00103536781
:100EB80000F0DCFF786208E000F0D8FF02467B6AA9
:100EC800D31A022B01D903231AE2224B5B6F03F0DA
:100ED8000203002BF0D018E01E4B5B6F1D4A23F075
:100EE8000103536700F0C2FF786208E000F0BEFF1C
:100EF80002467B6AD31A022B01D9032300E2154B61
:100F08005B6F03F00203002BF0D17B681B6803F0D2
:100F18002003002B39D07B689B69002B1CD00D4B1C
:100F28001B680C4A43F48053136000F09FFF7862FB
:100F380008E000F09BFF02467B6AD31A022B01D916
:100F48000323DDE1034B1B6803F40053002BF0D0AF
:100F58001BE000BF004402589B4B1B689A4A23F4CD
:100F68008053136000F082FF786208E000F07EFF93
:100F780002467B6AD31A022B01D90323C0E1924BA4
:100F88001B6803F40053002BF0D17B681B6803F047
:100F98000403002B00F081808C4B1B688B4A43F4C0
:100FA8008073136000F062FF786208E000F05EFF73
:100FB80002467B6AD31A642B01D90323A0E1834B31
:100FC8001B6803F48073002BF0D07B689B68012BAF
:100FD80006D17D4B1B6F7C4A43F0010313672DE05C
:100FE8007B689B68002B0CD1774B1B6F764A23F0EC
:100FF80001031367744B1B6F734A23F004031367D1
:101008001CE07B689B68052B0CD16F4B1B6F6E4AED
:1010180043F0040313676C4B1B6F6B4A43F00103E7
:1010280013670BE0684B1B6F674A23F001031367D4
:10103800654B1B6F644A23F0040313677B689B6846
:10104800002B15D000F012FF78620AE000F00EFFC6
:1010580002467B6AD31A41F28832934201D90323AC
:101068004EE1594B1B6F03F00203002BEED014E046
:1010780000F0FCFE78620AE000F0F8FE02467B6AA7
:10108800D31A41F28832934201D9032338E14E4BF7
:101098001B6F03F00203002BEED17B685B6A002B09
:1010A80000F02D81484B1B6903F03803182B00F022
:1010B800BD807B685B6A022B40F09E80424B1B68B8
:1010C800414A23F08073136000F0D0FE786208E094
:1010D80000F0CCFE02467B6AD31A022B01D9032307
:1010E8000EE1394B1B6803F00073002BF0D1364B2F
:1010F8009A6A374B13407A68916A7A68D26A120101
:101108000A43314913438B627B681B6B013BC3F372
:1011180008027B685B6B013B5B029BB21A437B68EE
:101128009B6B013B1B0403F4FE031A437B68DB6BD8
:10113800013B1B0603F0FE43234913430B63224B79
:10114800DB6A214A23F00103D3621F4B5A6B214B00
:1011580013407A68926CD2001B4913434B631A4BB5
:10116800DB6A23F00C027B681B6C17491343CB62C4
:10117800154BDB6A23F002027B685B6C1249134350
:10118800CB62114BDB6A104A43F48033D3620E4BB7
:10119800DB6A0D4A43F40033D3620B4BDB6A0A4A1D
:1011A80043F48023D362084BDB6A074A43F0010308
:1011B800D362054B1B68044A43F08073136000F048
:1011C80055FE786211E000BF0044025800480258FA
:1011D8000CFCFFFF0700FFFF00F048FE02467B6A99
:1011E800D31A022B01D903238AE0474B1B6803F06B
:1011F8000073002BF0D082E0434B1B68424A23F077
:101208008073136000F032FE786208E000F02EFE72
:1012180002467B6AD31A022B01D9032370E03A4BAA
:101228001B6803F00073002BF0D168E0364B9B6A13
:101238003B61354B1B6BFB607B685B6A012B31D0D4
:101248003B6903F003027B689B6A9A422AD13B6997
:101258001B0903F03F027B68DB6A9A4222D1FB68D4
:10126800C3F308027B681B6B013B9A421AD1FB68E7
:101278005B0A03F07F027B685B6B013B9A4211D1EA
:10128800FB681B0C03F07F027B689B6B013B9A4257
:1012980008D1FB681B0E03F07F027B68DB6B013B08
:1012A8009A4201D001232BE0174B5B6BDB08C3F399
:1012B8000C033B617B689B6C3A699A421FD0124BC6
:1012C800DB6A114A23F00103D36200F0CFFD786294
:1012D80000BF00F0CBFD02467B6A9342F9D00A4B6F
:1012E8005A6B0A4B13407A68926CD2000649134332
:1012F8004B63054BDB6A044A43F00103D3620023C6
:1013080018463037BD4680BD004402580700FFFF2D
:1013180080B586B000AF786039607B68002B01D15A
:1013280001239CE18A4B1B6803F00F033A689A4239
:1013380010D9874B1B6823F00F0285493B6813437C
:101348000B60834B1B6803F00F033A689A4201D085
:10135800012384E17B681B6803F00403002B10D091
:101368007B681A697B4B9B6903F070039A4208D922
:10137800784B9B6923F070027B681B69754913439E
:101388008B617B681B6803F00803002B10D07B6817
:101398005A69704BDB6903F070039A4208D96D4BA8
:1013A800DB6923F070027B685B696A491343CB6190
:1013B8007B681B6803F01003002B10D07B689A69C8
:1013C800644BDB6903F4E0639A4208D9614BDB693B
:1013D80023F4E0627B689B695E491343CB617B68B9
:1013E8001B6803F02003002B10D07B68DA69594B87
:1013F8001B6A03F070039A4208D9564B1B6A23F004
:1014080070027B68DB69534913430B627B681B6876
:1014180003F00203002B10D07B68DA684D4B9B6900
:1014280003F00F039A4208D94A4B9B6923F00F0235
:101438007B68DB68474913438B617B681B6803F053
:101448000103002B55D0434B9B6923F470627B68E2
:101458009B68404913438B617B685B68022B07D10B
:101468003C4B1B6803F40033002B21D10123F6E029
:101478007B685B68032B07D1364B1B6803F000734E
:10148800002B15D10123EAE07B685B68012B07D1AB
:10149800304B1B6803F48073002B09D10123DEE075
:1014A8002C4B1B6803F00403002B01D10123D6E069
:1014B800284B1B6923F007027B685B6825491343A7
:1014C8000B6100F0D3FC78610AE000F0CFFC024623
:1014D8007B69D31A41F28832934201D90323BEE0D3
:1014E8001C4B1B6903F038027B685B68DB009A427F
:1014F800EBD17B681B6803F00203002B10D07B68DC
:10150800DA68144B9B6903F00F039A4208D2114B17
:101518009B6923F00F027B68DB680E4913438B61DC
:101528000B4B1B6803F00F033A689A4214D2084B1E
:101538001B6823F00F0206493B6813430B60044BFA
:101548001B6803F00F033A689A4205D0012386E02E
:1015580000200052004402587B681B6803F0040313
:10156800002B10D07B681A693F4B9B6903F070030E
:101578009A4208D23C4B9B6923F070027B681B6936
:10158800394913438B617B681B6803F00803002B00
:1015980010D07B685A69344BDB6903F070039A42B8
:1015A80008D2314BDB6923F070027B685B692E49F6
:1015B8001343CB617B681B6803F01003002B10D02A
:1015C8007B689A69284BDB6903F4E0639A4208D286
:1015D800254BDB6923F4E0627B689B69224913434E
:1015E800CB617B681B6803F02003002B10D07B685D
:1015F800DA691D4B1B6A03F070039A4208D21A4B32
:101608001B6A23F070027B68DB69174913430B627E
:1016180000F034F80246144B9B691B0A03F00F03D1
:101628001249CB5C03F01F0322FA03F33B610E4B14
:101638009B6903F00F030D4AD35C03F01F033A695B
:1016480022FA03F30A4A13600A4A3B6913600A4BF9
:101658001B68184600F0C2FB0346FB73FB7B184669
:101668001837BD4680BD00BF00440258581F000807
:1016780004000020000000200800002080B489B089
:1016880000AF9D4B1B6903F03803182B25D0182B8E
:1016980000F22981102B1DD0102B00F22481002B81
:1016A80002D0082B13D01EE1934B1B6803F02003D4
:1016B800002B09D0904B1B68DB0803F003038F4A0B
:1016C80022FA03F3BB6111E18C4BBB610EE18C4B39
:1016D800BB610BE18B4BBB6108E1874B9B6A03F055
:1016E80003037B61844B9B6A1B0903F03F033B6147
:1016F800814BDB6A03F00103FB607F4B5B6BDB080C
:10170800C3F30C03FA6802FB03F307EE903AF8EE12
:10171800677AC7ED027A3B69002B00F0E1807B69AC
:10172800022B00F083807B69022B00F2A1807B6989
:10173800002B03D07B69012B56D099E06E4B1B68B8
:1017480003F02003002B2DD06B4B1B68DB0803F044
:1017580003036A4A22FA03F37B607B6807EE903A38
:10176800F8EE676A3B6907EE903AF8EE677A86EE1C
:10177800A77A614B1B6BC3F3080307EE903AF8EEA8
:10178800676A97ED026ADFED605AC6EE257A76EE53
:10179800A77AF7EE006A77EEA67A67EE277AC7EDA2
:1017A800077A87E03B6907EE903AF8EE677ADFED53
:1017B800576A86EEA77A504B1B6BC3F3080307EEF4
:1017C800903AF8EE676A97ED026ADFED4F5AC6EE77
:1017D800257A76EEA77AF7EE006A77EEA67A67EEB4
:1017E800277AC7ED077A65E03B6907EE903AF8EE8D
:1017F800677ADFED476A86EEA77A3F4B1B6BC3F328
:10180800080307EE903AF8EE676A97ED026ADFED93
:101818003E5AC6EE257A76EEA77AF7EE006A77EE9C
:10182800A67A67EE277AC7ED077A43E03B6907EEA9
:10183800903AF8EE677ADFED376A86EEA77A2E4B94
:101848001B6BC3F3080307EE903AF8EE676A97ED4F
:10185800026ADFED2D5AC6EE257A76EEA77AF7EE04
:10186800006A77EEA67A67EE277AC7ED077A21E055
:101878003B6907EE903AF8EE677ADFED256A86EE67
:10188800A77A1D4B1B6BC3F3080307EE903AF8EEDB
:10189800676A97ED026ADFED1C5AC6EE257A76EE86
:1018A800A77AF7EE006A77EEA67A67EE277AC7ED91
:1018B800077A00BF104B1B6B5B0A03F07F030133F1
:1018C8003B603B6807EE903AB8EE677AD7ED076A57
:1018D800C6EE877AFCEEE77A17EE903ABB6105E030
:1018E8000023BB6102E0064BBB6100BFBB69184621
:1018F8002437BD4680BC7047004402580090D0038E
:1019080000093D0040787D01000000460024744C29
:101918000024744A20BCBE4B80B489B000AF786004
:1019280039600023FB618E4B7B619EE13B681A683E
:101938000121FB6901FA03F313403B613B69002B6A
:1019480000F090813B685B6803F00303012B05D02E
:101958003B685B6803F00303022B30D17B689B680C
:10196800BB61FB695B00032202FA03F3DB43BA693C
:101978001340BB613B68DA68FB695B0002FA03F35A
:10198800BA691343BB617B68BA699A607B685B6814
:10199800BB610122FB6902FA03F3DB43BA69134016
:1019A800BB613B685B681B0903F00102FB6902FA33
:1019B80003F3BA691343BB617B68BA695A603B6831
:1019C8005B6803F00303032B09D13B685B6803F0F2
:1019D8000303032B1BD13B689B68012B17D07B6843
:1019E800DB68BB61FB695B00032202FA03F3DB439C
:1019F800BA691340BB613B689A68FB695B0002FAED
:101A080003F3BA691343BB617B68BA69DA603B6860
:101A18005B6803F00303022B23D1FB69DA087B68B8
:101A2800083253F82230BB61FB6903F007039B00BF
:101A38000F2202FA03F3DB43BA691340BB613B6828
:101A48001A69FB6903F007039B0002FA03F3BA69FA
:101A58001343BB61FB69DA087B680832B96943F84C
:101A680022107B681B68BB61FB695B00032202FADA
:101A780003F3DB43BA691340BB613B685B6803F05F
:101A88000302FB695B0002FA03F3BA691343BB6103
:101A98007B68BA691A603B685B6803F44033002BC3
:101AA80000F0E0802F4BD3F8F4302E4A43F00203C5
:101AB800C2F8F4302B4BD3F8F43003F00203FB6088
:101AC800FB68294AFB699B08023352F82330BB6143
:101AD800FB6903F003039B000F2202FA03F3DB43C5
:101AE800BA691340BB617B68204A934252D07B6835
:101AF8001F4A934231D07B681E4A93422BD07B68A1
:101B08001D4A934225D07B681C4A93421FD07B68AC
:101B18001B4A934219D07B681A4A934213D07B68B8
:101B2800194A93420DD07B68184A934207D07B68C4
:101B3800174A934201D109232DE00A232BE00823F9
:101B480029E0072327E0062325E0052323E00423D3
:101B580021E003231FE002231DE001231BE000BF57
:101B68008000005800440258000400580000025841
:101B78000004025800080258000C025800100258CD
:101B88000014025800180258001C0258002002587D
:101B9800002402580023FA6902F0030292009340DD
:101BA800BA691343BB613849FB699B080233BA69B8
:101BB80041F823204FF0B0431B68BB613B69DB430E
:101BC800BA691340BB613B685B6803F48013002B60
:101BD80003D0BA693B691343BB614FF0B042BB699C
:101BE80013604FF0B0435B68BB613B69DB43BA6984
:101BF8001340BB613B685B6803F40013002B03D000
:101C0800BA693B691343BB614FF0B042BB6953608B
:101C18007B695B68BB613B69DB43BA691340BB61A5
:101C28003B685B6803F40033002B03D0BA693B6957
:101C38001343BB617B69BA695A607B691B68BB61E6
:101C48003B69DB43BA691340BB613B685B6803F4DB
:101C58008033002B03D0BA693B691343BB617B69AE
:101C6800BA691A60FB690133FB613B681A68FB6952
:101C780022FA03F3002B7FF459AE00BF00BF2437CC
:101C8800BD4680BC704700BF0004005880B483B0D4
:101C980000AF78600B467B8013467B707B78002B07
:101CA80003D07A887B689A6103E07B881A047B6892
:101CB8009A6100BF0C37BD4680BC704780B485B0C0
:101CC80000AF78600B467B807B685B69FB607A8835
:101CD800FB6813401A04FB68D9437B880B401A43FE
:101CE8007B689A6100BF1437BD4680BC704700000E
:101CF80080B584B000AF7860194BDB6803F004034B
:101D0800042B0AD0164BDB6803F007037A689A4263
:101D180001D001231FE000231DE0114BDB6823F0F5
:101D280007020F497B681343CB6000F09FF8F86007
:101D380009E000F09BF80246FB68D31AB3F57A7FF6
:101D480001D9012307E0064B5B6803F40053B3F5A0
:101D5800005FEED1002318461037BD4680BD00BF96
:101D68000048025880B582B000AF0320FEF7D2FDCC
:101D7800FFF784FC0246154B9B691B0A03F00F030F
:101D88001349CB5C03F01F0322FA03F37B600F4B6C
:101D98009B6903F00F030E4AD35C03F01F037A68B4
:101DA80022FA03F30B4A13600B4A7B6813600F2077
:101DB80000F014F80346002B01D0012302E0FEF7DF
:101DC80003FC002318460837BD4680BD004402586E
:101DD800581F0008040000200000002080B582B0D1
:101DE80000AF7860154B1B78002B01D1012321E04F
:101DF800134B1A68114B1B7819464FF47A73B3FBCF
:101E0800F1F3B2FBF3F31846FEF7A9FD0346002BE6
:101E180001D001230EE07B680F2B0AD800227968D5
:101E28004FF0FF30FEF781FD064A7B681360002300
:101E380000E0012318460837BD4680BD0C0000208D
:101E4800000000200800002080B400AF054B1B787C
:101E58001A46054B1B681344034A136000BFBD466E
:101E680080BC70470C0000203000002080B400AF18
:101E7800024B1B681846BD4680BC704730000020E6
:101E880080B584B000AF7860FFF7F0FFB8607B687A
:101E9800FB60FB68B3F1FF3F05D00A4B1B781A467D
:101EA800FB681344FB6000BFFFF7E0FF0246BB6816
:101EB800D31AFA689A42F7D800BF00BF1037BD4658
:101EC80080BD00BF0C00002080B400AF034B1B682E
:101ED8001B0C1846BD4680BC704700BF0010005C54
:101EE80002440346934200D1704703F8011BF9E707
:101EF80070B50D4B0D4C00261D1BB6EBA50F09D177
:101F080000F01AF80A4C0B4B00261D1BB6EBA50F68
:101F180005D170BD54F8043B98470136EDE754F8F5
:101F2800043B98470136F1E7681F0008681F00085E
:101F3800681F00086C1F0008F8B500BFF8BC08BC93
:101F48009E467047F8B500BFF8BC08BC9E4670476F
:101F58000000000001020304010203040607080947
:041F68000103000869
:041F6C00D90200088E
:101F70000090D0030090D00310000000010000008A
:0400000508000605E4
:00000001FF
